:1000000014EF05F00000000000EF00F00000000019
:0A0010000000000000000000F3D71C
:10001C000F0E0C6E470E0D6E0D2EFED70C2EFCD750
:06002C00000000001200BC
:0A003200210E0D6E0D2EFED71200F8
:06003C00000000001200AC
:100042000B840BAE2CEF00F0010E036E026A016A04
:0A005200006A0A360232FF0E1200A7
:08005C000AAE029E000E120024
:10006400000174BF02D0819601D0818674BD02D094
:10007400819401D0818474BB02D0819201D08182A9
:1000840074B902D0819001D081805DB002D08188A2
:1000940001D08198818AD0DF819A74B702D0819689
:1000A40001D0818674B502D0819401D0818474B367
:1000B40002D0819201D0818274B102D0819001D0AA
:1000C40081805DB002D0818801D08198818AB4DFBB
:0E00D400819A5DA002D0A0DF01D0A9DF12004A
:0E00E200026A016A006A086A036A000E1200D0
:1000F0000B820BAE82EF00F00368026801680068B3
:080100000A360232FF0E120064
:10010800086A096A000E0762036409EF01F00250E9
:1001180006180A6E075003267E0ED8A09AEF00F044
:10012800035ED8B00DEF01F09EEF00F0035ED8A09B
:1001380011EF01F0028E068E02C00EF001C00BF026
:1001480000C00DF000500402F4CF0CF0015005027D
:10015800F4CF00F0F3CF08F00402F3500C26F4506B
:100168000822000E00220D500502F3500C26F45010
:100178000822000E002202500402F3500826F45010
:10018800002202500502016A000E0122F3500026E7
:10019800F45001220D500602F3500826F4500022B4
:1001A800026A000E012202220B500602F3500026BA
:1001B800F4500122000E02220E500602F3500126CE
:1001C800F450022202BEF1EF00F008360036013684
:1001D80002360306D8B411EF01F004EF01F0D8801D
:1001E800800E08640030000E002201220222D8A0EE
:1001F80004EF01F0023201320032034A0DEF01F040
:100208000AAE029E000E13EF01F0010E66DF13EF37
:1002180001F0020E69DF13EF01F0040E0EDF120089
:100228000C6A0E6A0250D8A42DEF01F001C002F04A
:1002380000C001F0006A0E860250D8A42DEF01F02C
:1002480001C002F0016A0E960E880250D8B43FEF42
:1002580001F00E50035ED8A4D8A044EF01F0D89066
:1002680002BE49EF01F0003601360236032E34EFA4
:1002780001F044EF01F0010E0C6E2FDF4CEF01F09E
:10028800020E0C6EDADE4CEF01F0040E0C6EE2DEAC
:02029800120052
:10029A000A6A0350D8A40A800750D8A40A820A50CE
:1002AA00D8B4B0EF01F0030AD8B469EF01F00AB08C
:1002BA0064EF01F006AEAEEF01F0ACEF01F002AE72
:1002CA00ACEF01F0AEEF01F00250800B0A6E029E15
:1002DA000650800B069E0A18D8B47AEF01F00A502D
:1002EA00D8B4ACEF01F0AEEF01F00750035CD8B41C
:1002FA0084EF01F0D8A0A0EF01F0A6EF01F00650BC
:10030A00025CD8B48EEF01F0D8A0A0EF01F0A6EFFE
:10031A0001F00550015CD8B498EF01F0D8A0A0EF25
:10032A0001F0A6EF01F00450005CD8B4B0EF01F080
:10033A00D8B0A6EF01F00A52D8B4AEEF01F0ACEF94
:10034A0001F00A52D8B4ACEF01F0AEEF01F0D88058
:0E035A001200D8901200D880D8841200120031
:1003680070C004F071C005F004C002F005C003F0CD
:10037800044A052A72C000F073C001F00001724BF4
:10038800732B00C0E9FF01C0EAFF02C0E1FF03C010
:10039800E2FFEECFE6FF02C0E9FF03C0EAFFEE523C
:0E03A80001E0E2D770C000F071C001F0120059
:0C03B6000E0E0D6E0D2EFED70000120082
:1003C200086A080E0C6E003408360450085ED8B075
:0E03D20002D00826D89000360C2EF5D7120067
:0C03E0005D9070C074F03EDE5D80120085
:1003EC00FF0E0001616FFF0E626FFF0E636FFF0E59
:0E03FC00646FC26A070EC012C08EC28012006B
:10040A000900F5CFE6FF0006FBE10106F9E112005B
:10041A0010D0800E0001656F1AD0C00E656F17D01C
:10042A00940E656F14D0D40E656F11D0800E656F6F
:10043A000ED000016551010AECE06551020AEDE0B7
:10044A006551030AEDE06551040AEDE0EFD7660550
:10045A00006E6551002600C065F000C074F0FDDD35
:10046A005D905E6A5E506725E96E000E6821EA6E4D
:10047A00EE520BE05E506725E96E000E6821EA6EC7
:0E048A00EECF70F0A8DF5E2AEDD75D80120085
:10049800939A93989390939293949396819A819830
:1004A8008196819481928190B5DDB4DDB3DD81823E
:1004B8008180818ABFDD819AADDD818ABBDD819A29
:1004C800A9DD818AB7DD819AA5DD8190818AB2DDB7
:1004D800819AA0DD818AAEDD819A81928186818AA6
:1004E800A9DD819A97DD81968180818AA3DD819A31
:1004F8008190818A9FDD819A8DDD818A9BDD819A39
:100508008180818A97DD819A85DD8190818A92DD5B
:10051800819A8186818481828180818A8BDD819A1A
:0605280079DD5D80120088
:10052E0010D0800E0001656F1AD0C00E656F17D007
:10053E00940E656F14D0D40E656F11D0800E656F5A
:10054E000ED000016551010AECE06551020AEDE0A2
:10055E006551030AEDE06551040AEDE0EFD766053B
:10056E00006E6551002600C065F05D8000C074F01D
:0E057E0072DD5D9067C074F06EDD5D8012006E
:10058C000001606B60515E24E96E000E5F20EA6E24
:10059C00EE520BE060515E24E96E000E5F20EA6EB5
:0C05AC00EECF70F017DF602BEDD71200CF
:1005B8000001606B6F6B65C06BF066C06CF067C064
:1005C8006DF068C06EF06E51FF0A08E16D51FF0AC8
:1005D80005E16C51FF0A02E16B51FF0A0CE169C0A9
:1005E80070F06AC071F0440E726F000E736FB8DE5F
:1005F800030E006EE5D1010E5E6E6DAF0ED0800E5B
:100608006D19006E00C06DF05E2A69C0E1FF6AC016
:10061800E2FF2D0EE66E694B6A2B000E006E6E1916
:1006280008E100506D1905E100506C1902E16B51A9
:10063800000A0BE169C070F06AC071F03C0E726F7D
:10064800000E736F8DDE006ABBD16E51FF0A08E1A0
:100658006D51000A05E16C51000A02E16B51000A74
:100668000CE169C070F06AC071F03E0E726F000E46
:10067800736F76DE5EC000F0A3D1000E046E000E2C
:10068800056E000E066E7F0E076E6BC000F06CC024
:1006980001F06DC002F06EC003F0FBDD010ED8B0B2
:1006A800000E006E00521BE06BC000F06CC001F041
:1006B8006DC002F06EC003F0000E046E000E056EF1
:1006C800200E066E820E076E1BDD00C06BF001C0A7
:1006D8006CF002C06DF003C06EF06F07CED7000E4D
:1006E800046E000E056E200E066E820E076E6BC03D
:1006F80000F06CC001F06DC002F06EC003F0C9DDFF
:10070800000ED8B0010E006E00521BE06BC000F066
:100718006CC001F06DC002F06EC003F0CD0E046E27
:10072800CC0E056E4C0E066E7B0E076EE9DC00C023
:100738006BF001C06CF002C06DF003C06EF06F2B5F
:10074800CED7FF0E6B15086EFF0E6C15096E7F0E67
:100758006D150A6E000E6E150B6E08C004F009C008
:1007680005F00AC006F00BC007F004360490053601
:1007780006360736000E6B15006E000E6C15016EFE
:10078800000E6D15026EFF0E6E15036E00C06BF045
:1007980001C06CF002C06DF003C06EF004506B1124
:1007A800006E05506C11016E06506D11026E0750F7
:1007B8006E11036E00C06BF001C06CF002C06DF0EA
:1007C80003C06EF07F0E6E5D006E00C05FF0010E1C
:1007D8006E6F00C004F06BC000F06CC001F06DC01B
:1007E80002F06EC003F0045007E0003600900136B6
:1007F80002360336FF0FF8D700C06BF001C06CF06B
:1008080002C06DF003C06EF069C0E1FF6AC0E2FF8C
:100818006E51300FE66E694B6A2B800E6F19006EB1
:10082800800E010A005C08E3800E060A006E800E46
:100838006F19005C01E30AD069C0E1FF6AC0E2FFFA
:100848002E0EE66E694B6A2B010E606F060E5F6E08
:100858005F50000A54E06E6B6BC000F06CC001F092
:100868006DC002F06EC003F000360090013602360B
:100878000336003600900136023603366B510026E7
:100888006C5101226D5102226E51032200C06BF09F
:1008980001C06CF002C06DF003C06EF06BC000F0D8
:1008A8006CC001F06DC002F06EC003F0003600901D
:1008B80001360236033600C06BF001C06CF002C08E
:1008C8006DF003C06EF069C0E1FF6AC0E2FF6E51CF
:1008D800300FE66E694B6A2B6051000A0EE16F0714
:1008E8006F51000A0AE169C0E1FF6AC0E2FF2E0EFB
:1008F800E66E694B6A2B010E606F5F06A9D7FF0E83
:100908006925E96EFF0E6A21EA6EEE50300A05E1AC
:10091800010E695F000E6A5BF2D7FF0E6925E96E6A
:10092800FF0E6A21EA6EEE502E0A04E1010E695F9D
:10093800000E6A5B6F51000A3DE069C0E1FF6AC0C2
:10094800E2FF650EE66E694B6A2B800E6F19006E2A
:10095800800E000A005C0BE269C0E1FF6AC0E2FF9A
:100968002D0EE66E694B6A2B6F5100086F6F6FC0D2
:100978005FF06F5109080EE20A0E046E5FC000F0C6
:100988001CDD69C0E1FF6AC0E2FF0050300FE66E6F
:10099800694B6A2B0A0E046E5FC000F00EDD08C0BA
:1009A80000F069C0E1FF6AC0E2FF0050300FE66E58
:1009B800694B6A2B69C0E1FF6AC0E2FFE66A006A18
:0209C80012001B
:1009CA00C26A070EC012C08E5EC000F000360090E8
:1009DA00003600900050C212C280E8DCC282C2A275
:1009EA0001D0FDD7C4CF01F0006AC3500012000E37
:0609FA000112C290120080
:100A00000050086E0150006E016A026A036A0B6AA8
:100A10000C6A960E036E0A6A00C001F008C000F06E
:080A2000086A026A01DC120001
:100A2800B6EC05F00E0EC16E9280936A816ADADC2C
:100A38002FDD010E746F32EC00F00C0E746F32EC87
:100A480000F0010E656F010E666F240E676F000ED1
:100A5800686FDFDC020E656F010E666F300E676F20
:100A6800000E686FD6DC040E0B6E0C0E0C6E330E87
:100A78000D6E0D2EFED70C2EFCD70B2EFAD70000CC
:100A88000000010E746F32EC00F05E6A9ADF00C05D
:100A98005BF001C05CF0B0DFC00E046E3E0E056E68
:100AA8007A0E066E7D0E076E84EC00F000C048F0EA
:100AB80001C049F002C04AF003C04BF0010E00012A
:100AC800656F010E666F150E676F000E686FA1DC0B
:100AD80048C065F049C066F04AC067F04BC068F08E
:100AE8004C0E696F000E6A6F63DD020E656F010EB2
:100AF800666F4C0E676F000E686F8BDC020E656FB9
:100B0800090E666FDF0E676F0EDD420E5E6E000E19
:100B18005F6E38DD030E0B6E080E0C6E770E0D6ED1
:100B28000D2EFED70C2EFCD70B2EFAD7AED7FFD73B
:100B6C0010EE15F0330E006E010E016E380EF66E9F
:0E0B7C000B0EF76E000EF86E05EC02F0120084
:0F0B380054656D7065726174757265203D2000A3
:0C0B470048656C6C6F20576F726C640086
:0C0B53004C434420446973706C617900CD
:020B5F00300064
:040B6100494E4600B3
:020B650043004B
:040B67004E614E008D
:020000040030CA
:0E000000000C1F1EFF8381FF0FC00FE00F409A
:00000001FF
