:020000004C2989
:06000600000000000800EC
:0E000C00213083120313FD00FD0B0A280800AB
:10001A000F3083120313FC004730FD00FD0B132839
:0A002A00FC0B132800000000080082
:1000340083120313C11B2028861321288617411B12
:100044002528061326280617C11A2A2886122B28C3
:100054008616411A2F280612302806163518342819
:10006400061535280611861503208611C1193C286A
:1000740086133D288617411941280613422806177E
:10008400C118462886124728861641184B2806129E
:100094004C280616351850280615512806118615C1
:1000A40003208611351C58280D20592806200800E5
:1000B40083120313BC01BE01BF011030C000043021
:1000C4003F0203188628F030870040098316870012
:1000D400032003200F3083120705F0007008BD00D1
:1000E4007008031980283E08BC003D0803197E28C7
:1000F400BD0CBD13BC0A77280430BF00C00D4010EE
:0E0104000430BE07BF0A61283C08F000080066
:100112008312031335103C08C1001A20351408005D
:10012200063083120313FD00FD0B95280000080022
:0E0132008312031337088A0036088200080083
:100140005A207008B8000F300705F0000319AA28DC
:0A0150009120A3283808F0000800F1
:10015A00BF28803083120313B800D228C030B800F9
:10016A00D2289430B800D228D430B800D2288030AF
:10017A00B800D228831203133808013A0319AE28AB
:10018A003808023A0319B3283808033A0319B6287B
:10019A003808043A0319B928BC283903F00038088A
:1001AA00F0077008B8007008C1001A203510BB01AA
:1001BA003B083A07840000080319EB283B083A0772
:1001CA0084000008BC008920BB0ADD283514080019
:0A01DA00FF308316031387000800AE
:1001E400831603138611061106128612061386134C
:1001F40083128611061186130613861206120D2029
:100204000D200D20861606168615032086110D2056
:100214008615032086110D208615032086110D20D6
:1002240006128615032086110D20861503208611DB
:10023400861286178615032086110D20861306164E
:1002440086150320861106128615032086110D20BB
:1002540086150320861106168615032086110D20A7
:1002640006128615032086118617061786160616AB
:0C0274008615032086110D2035140800AB
:1002800099208A110A128000840AB60A0319B70A53
:08029000F003031D40290800E2
:1002980083120313A0012030A1002030A2002030D7
:1002A800A3002030A400A5014B30A6006530A700AC
:1002B8007930A8002030A9005030AA007230AB0075
:1002C8006530AC007330AD007330AE006530AF0000
:1002D8006430B0003A30B100B2010F3083168700A5
:1002E800FF3083128700F2200130C1001A200C3041
:1002F800C1001A200130B8000130B9002630BA0018
:10030800AD20ED20A0207008A000700803190E2A67
:10031800BD293130A000FD293230A000FD2933303D
:10032800A000FD294130A000FD293430A000FD299E
:100338003530A000FD293630A000FD294230A0004C
:10034800FD293730A000FD293830A000FD293930BB
:10035800A000FD294330A000FD292A30A000FD2976
:100368003030A000FD292330A000FD294430A00032
:10037800FD292008013A03198D292008023A03199A
:1003880090292008033A031993292008043A0319ED
:1003980096292008053A031999292008063A0319CD
:1003A8009C292008073A03199F292008083A0319AD
:1003B800A2292008093A0319A52920080A3A03198D
:1003C800A82920080B3A0319AB2920080C3A03196D
:1003D800AE2920080D3A0319B12920080E3A03194D
:1003E800B42920080F3A0319B7292008103A03192D
:1003F800BA292008B300B4010230B8000130B900AE
:100408002130BA00AD200230B8000130B9003330D5
:08041800BA00AD2086290F2A6D
:02400E004A2F37
:00000001FF
